:020000040000FA
:04000000803105281E
:1000080009008B213721FF3091009201B001B10125
:10001800AD01AE01B2200E28630010281710971109
:10002800971417150800080033110F183315941783
:100038001910991419150230F000F00B212800004E
:10004800B3138F1BB31719110230F000F00B2A28D5
:10005800000019150230F000F00B30281911023099
:10006800F000F00B35280000B31B1E2819103319B7
:100078001914080017109715171197100130F2007E
:10008800F3017D2031210330F200F3017D200800C7
:10009800080098260130F200F3017D201220033079
:1000A800F200F3017D20080008009E260130F200CE
:1000B800F3017D2031210230F200F3017D20080098
:1000C800080019100130A300A6210430F200F30142
:1000D8007D208030A300A6218530F000F00B722827
:1000E80008001930F000F00B77280000F50B752890
:1000F8000800F30A0E30F100BD30F000F00B822842
:10010800F10B8028F20B7E28F30B7E2808001714C9
:100118009711171197100130F200F3017D2031215A
:100128000330F200F3017D20080008009E2601300C
:10013800F200F3017D2012200330F200F3017D204C
:100148000800080098260130F200F3017D203121D3
:100158000230F200F3017D20080008006520A601A6
:100168000130A500F3213008A9003108AA006C234A
:100178000130A6000130A500F3212208A700B6220D
:100188009D248C19DA28B00A0319B10A3121643088
:10019800F200F3017D203008F5003108F600033045
:1001A800F900FA011A267018EB242F293008F500F7
:1001B8003108F6000430F900FA011A267008B50073
:1001C8002108F9001030F5002526F00935087005DA
:1001D800B700371C0429B00A0319B10A3121643069
:1001E800F200F3017D2098265E30F2000130F30022
:1001F8007D208C1D022931219D24FD2893252F293E
:1002080039080C3C031C0A290B222F2921080F3C12
:10021800031C10299E262F2917302202031C162999
:10022800F6252F290F302202031C1C29A6202F296E
:100238002208083C031C222959202F290D302202AC
:10024800031C28298B202F2922080A3C031C2E294D
:100258003E202F2931210800080017149715971000
:100268001711080008003230F200F3017D209410C5
:1002780099101412941214139413141014111910C1
:10028800191199131913991619160530F000F00B66
:100298004B2919150530F000F00B502919110A30B7
:1002A800F200F3017D200330B40019150530F00089
:1002B800F00B5C2919110130F200F3017D20B40B19
:1002C800592999131913991619120530F000F00BD2
:1002D8006B2919150530F000F00B70291911013040
:1002E800F100F001F00B7629F10B75290930F000C7
:1002F800F00B7C292830A300A6210630A300A621F4
:100308000C30A300A62165200C30AC00080060303A
:1003180031008D008F019101920106309300210078
:10032800131193133E00B801C301CE01D901E401B2
:1003380033009413901320008C018D018E018F01DE
:100348009001080018209910141294121413941391
:100358009913A31B99171913231B19179912A31A79
:1003680099161912231A19160230F000F00BBA293F
:10037800000019150230F000F00BC029191199136B
:10038800A31999171913231919179912A31899164C
:100398001912231819160230F000F00BD1290000A9
:1003A80019150230F000F00BD7291911E230F000CE
:1003B800F00BDC2900000F18EB291030230203187A
:1003C800EB292308073C0318EB292308AC00080095
:1003D80019142408A300A6210530F5007528191062
:1003E8002608013C0318FC290230A6021430A50790
:1003F8002608F5004030F900832625087007B50067
:1004080080303504A300A6210530F5007528300892
:10041800F5003108F6000130F900FA011A26701CBF
:10042800272A3121FA30F200F3017D209E265E3022
:10043800F2000130F3007D203121E230F200043077
:10044800F3007D20862A3008F5003108F6000230D6
:10045800F900FA011A26701C3E2A9E265E30F20028
:100468000130F3007D203121D630F2000630F30050
:100478007D20862A3008F5003108F6000330F9009F
:10048800FA011A26701C712A9E26F430F2000130F7
:10049800F3007D208C1D6B2A9D2431210130F20050
:1004A800F3017D2014260230F200F3017D2021089B
:1004B8000A3C031C6A2A12206430F200F3017D20F2
:1004C8000F30210203186A2A9826642A4E2A12201D
:1004D800FA30F200F3017D20862A3008F500310851
:1004E800F6000530F900FA011A26701C862A9E26A5
:1004F8009030F2000130F3007D203121FA30F20013
:10050800F3017D20171614265830F2000230F3004C
:100518007D2098269030F2000130F3007D20BC0148
:10052800BD01BC0A0319BD0A9E262030F200033023
:10053800F3007D2098262030F2000330F3007D2060
:100548003C08F5003D08F6000330F900FA012C26B6
:100558007018952A9E269030F2000130F3007D2015
:1005680017120800AB01191464302702031CC92AAA
:100578002708F5006430F9003B267508AB007008C1
:10058800A70030302B07A300A6212B08F900F5019E
:1005980025267008B5002708F5000A30F900252639
:1005A800F00935087004B700371CE72A2708F5005A
:1005B8000A30F9003B267508AB007008A7003030F8
:1005C8002B07A300A62130302707A300A62919145A
:1005D800AB012708F5002808F6001030F90027308D
:1005E800FA002C26F009701C0D2B2708F5002808A6
:1005F800F6001030F9002730FA004F267508AB00D6
:100608007008A7007108A80030302B07A300A621A6
:10061800192B2708F5002808F600E830F900033000
:10062800FA002C26F009701C2D2B2708F500280845
:10063800F600E830F9000330FA004F267508AB00E1
:100648007008A7007108A80030302B07A300A62166
:10065800382B2708F5002808F6006430F900FA015D
:100668002C26F009701C4B2B2708F5002808F600EB
:100678006430F900FA014F267508AB007008A7002E
:100688007108A80030302B07A300A621562B270895
:10069800F5002808F6000A30F900FA012C26F009BE
:1006A800701C682B2708F5002808F6000A30F900A6
:1006B800FA014F267508AB007008A7007108A8005A
:1006C80030302B07A300A62130302707A300A62926
:1006D800AA1F792B2D30A400EC212909A7002A098B
:1006E800A800A70A0319A80A7D2B2908A7002A0829
:1006F800A800EB2A210013112000200821009E00E9
:100708002000A008031D8B2B3E003814772C2003F3
:10071800031D912B3E00B814772C02302002031DD4
:10072800982B3E003815772C03302002031D9F2B91
:100738003E00B815772C04302002031DA62B3E007E
:100748003816772C05302002031DAD2B3E00B81655
:10075800772C06302002031DB42B3E003817772C67
:1007680007302002031DBB2B3E00B817772C08303A
:100778002002031DC22B3E004314772C09302002AF
:10078800031DC92B3E00C314772C0A302002031D19
:10079800D02B3E004315772C0B302002031DD72B9E
:1007A8003E00C315772C0C302002031DDE2B3E00C3
:1007B8004316772C0D302002031DE52B3E00C3168F
:1007C800772C0E302002031DEC2B3E004317772CAC
:1007D8000F302002031DF32B3E00C317772C103077
:1007E8002002031DFA2B3E004E14772C11302002F4
:1007F800031D012C3E00CE14772C12302002031D5D
:10080800082C3E004E15772C13302002031D0F2CA8
:100818003E00CE15772C14302002031D162C3E0006
:100828004E16772C15302002031D1D2C3E00CE16C7
:10083800772C16302002031D242C3E004E17772CEF
:1008480017302002031D2B2C3E00CE17772C1830B2
:100858002002031D322C3E005914772C1930200237
:10086800031D392C3E00D914772C1A302002031DA1
:10087800402C3E005915772C1B302002031D472CB5
:100888003E00D915772C1C302002031D4E2C3E004B
:100898005916772C1D302002031D552C3E00D91601
:1008A800772C1E302002031D5C2C3E005917772C34
:1008B8001F302002031D632C3E00D917772C2030EF
:1008C8002002031D6A2C3E006414772C213020027C
:1008D800031D712C3E00E414772C22302002031DE6
:1008E800772C3E0064152100131201309800131272
:1008F8000F309800131113112000200821009E00CA
:1009080093170230F5002000752021001314000011
:1009180013188C2C93133E00B801C301CE01D901E2
:10092800E40121000D082000AF0021001311200070
:100938000800A0017E232F08BB0003303B02B5004E
:100948008330F5001A30F6003508F900FA014F2611
:100958007508B7007608B80004303702B5000030D3
:10096800383BB6003508F5003608F6000530F900C2
:10097800FA014F267508A2000130A0007E232F0837
:10098800BA0003303A02B5008330F5001A30F60099
:100998003508F900FA014F267508B7007608B8003F
:1009A80004303702B5000030383BB6003508F50092
:1009B8003608F6000530F900FA014F267508A1003F
:1009C8000230A0007E232F08B90008000800210883
:1009D8000A3C0318042D9D246520A6010130A500BA
:1009E800F3213008A9003108AA006C230130A600C1
:1009F8000130A500F3212108A700B6220526EB2C1B
:100A08000F30210203181D2D9D246520A6010130F9
:100A1800A500F3213008A9003108AA006C23013091
:100A2800A6000130A500F3212108A700B6229E26C2
:100A3800042D98266430F200F3017D201430220240
:100A48000318482D9D246520A6010130A500F32137
:100A58003008A9003108AA006C230130A600013033
:100A6800A500F3212208A700B6220F302202031C9A
:100A78003F2D9A20462D22080A3C031C452D4D2067
:100A8800462D12201220222D12202C30F200013087
:100A9800F3007D201426FF30BC00BD00BC0A0319FA
:100AA800BD0A9D243908643C03180B220530F20066
:100AB800F3017D203C08F5003D08F6000A30F900F6
:100AC800FA012C267018522D9630F200F3017D2081
:100AD8009E262830F200F3017D2031219030F2006B
:100AE8000130F3007D209D248C1D7D2D9D24312116
:100AF800782D0430B000B10131212630F2000230E7
:100B0800F3007D2098267730F2000130F3007D2035
:100B18003121EE30F2000230F3007D2008009826E3
:100B28004B30F200F3017D2021080A3C03189F2D69
:100B38009D243121982D9D240F3021020318A72DC3
:100B480098269D24A02D98262830F200F3017D20B8
:100B58008C1DBA2D9D2431210130F200F3017D2036
:100B680014260130F200F3017D20AC2D12205E30F6
:100B7800F2000130F3007D201426F430F200013039
:100B8800F3007D2098267730F2000130F3007D20B5
:100B98009D2421080A3C0318D42D9D243121CD2DF4
:100BA8009D249E264530F2000130F3007D20142656
:100BB8002C30F2000130F3007D209D2421080A3CEE
:100BC8000318E92D9D243121E22D14262C30F20042
:100BD8000130F3007D209D2439080F3C03180B22B7
:100BE8000800080031210230F200F3017D201714BB
:100BF8009711971017110530F200F3017D200800B6
:100C0800080031210230F200F3017D2017109715FA
:100C1800971017110530F200F3017D200800080035
:100C2800171097119710171108000800F0017508A0
:100C38007902031D080076087A02031D0800F009EE
:100C48000800F001031479087502031CF009080074
:100C5800F00176087A02031C08007A087602031C61
:100C6800392E7908750203180800F0090800F908F8
:100C780003190800F0010830F4000310F50DF00D19
:100C88007908F002751403184C2E75107908F007CE
:100C9800F40B412E08007508F7007608F80079086B
:100CA800FB007A08FC00F201F3017B08F5007C08E0
:100CB800F600F901FA011A26701C652EF501F601F5
:100CC80008001030F4000310F70DF80DF20DF30DC5
:100CD8007B08F2027C08F33B77140318782E771010
:100CE8007B08F2077C08F33DF40B672E7708F500C4
:100CF8007808F6007208F0007308F1000800F001A7
:100D080075087918F0070310F90C0310F50DF908A8
:100D1800031D842E080078088A007708F70A03194B
:100D2800F80A820001342D341714971197101715FB
:100D380008000800171097159714171108000800E5
:020000040001F9
:0A000E008C3FFE3F9F3FFF1FFF3FA6
:00000001FF
