:020000040000FA
:04000000803105281E
:1000080009001B21C720FF3091009201AE01AF010A
:1000180074200C2863000E2831110F18311594171D
:100028001910991419150230F000F00B1928000066
:10003800B1138F1BB11719110230F000F00B2228F1
:10004800000019150230F000F00B282819110230B1
:10005800F000F00B2D280000B11B162819103119DB
:1000680019140800A0250130F200F3015A20C1201C
:100078000330F200F3015A2008000800191001307B
:10008800A30036210430F200F3015A208030A30087
:1000980036218530F000F00B4F2808001930F000A9
:1000A800F00B54280000F50B52280800F30A0E3014
:1000B800F100BD30F000F00B5F28F10B5D28F20B6A
:1000C8005B28F30B5B2808009A250130F200F30146
:1000D8005A20C1200330F200F3015A20080008001A
:1000E8004220A6010130A50083212E08A9002F086F
:1000F800AA0087220130A6000130A500832122082A
:10010800A700D121B8238C19A028AE0A0319AF0A79
:10011800C1206430F200F3015A202E08F5002F08A0
:10012800F6000630F900FA011C25701C9F28AE0A5B
:100138000319AF0A0624BF283708053C031CA62864
:100148009B21BF2821080F3C031CAC28A025BF28F1
:1001580014302202031CB2280725BF280A302202C5
:10016800031CB8286820BF282208083C031CBE28A6
:100178003620BF28C12008000800171497159710CB
:100188001711080008003230F200F3015A209410C9
:1001980099101412941214139413141014111910A2
:1001A800191199131913991619160530F000F00B47
:1001B800DB2819150530F000F00BE02819110A307A
:1001C800F200F3015A200330B20019150530F0008F
:1001D800F00BEC2819110130F200F3015A20B20B90
:1001E800E92899131913991619120530F000F00B24
:1001F800FB2819150530F000F00B00291911013002
:10020800F100F001F00B0629F10B05290930F00087
:10021800F00B0C292830A30036210630A300362124
:100228000C30A300362142200C30AC0008006030AE
:1002380031008D008F019101920106309300210059
:10024800131193133E00B801C301CE01D901E40193
:1002580033009413901320008C018D018E018F01BF
:10026800900108001020991014129412141394137A
:100278009913A31B99171913231B19179912A31A5A
:1002880099161912231A19160230F000F00B4A2990
:10029800000019150230F000F00B502919119913BC
:1002A800A31999171913231919179912A31899162D
:1002B8001912231819160230F000F00B61290000FA
:1002C80019150230F000F00B67291911E230F0001F
:1002D800F00B6C2900000F187B291030230203183B
:1002E8007B292308073C03187B292308AC00080056
:1002F80019142408A30036210530F50052281910D6
:100308002608013C03188C290230A6021430A507E0
:100318002608F5004030F900852525087007B30048
:1003280080303304A30036210530F5005228171613
:10033800C1209030F2000130F3005A2016255830C1
:10034800F2000230F3005A209A252C30F2000130D6
:10035800F3005A20BA01BB01BA0A0319BB0AA02547
:100368005830F2000230F3005A209A255830F20033
:100378000230F3005A203A08F5003B08F600033033
:10038800F900FA012E257018B029A0252C30F200AA
:100398000130F3005A2017120800AB011914643019
:1003A8002702031CE4292708F5006430F9003D25DD
:1003B8007508AB007008A70030302B07A300362162
:1003C8002B08F900F50127257008B3002708F50068
:1003D8000A30F9002725F00933087004B500351CE8
:1003E800022A2708F5000A30F9003D257508AB00F8
:1003F8007008A70030302B07A300362130302707BC
:10040800A30036291914AB012708F5002808F600BF
:100418001030F9002730FA002E25F009701C282A20
:100428002708F5002808F6001030F9002730FA00F0
:1004380051257508AB007008A7007108A800303076
:100448002B07A3003621342A2708F5002808F600D0
:10045800E830F9000330FA002E25F009701C482A0C
:100468002708F5002808F600E830F9000330FA00FC
:1004780051257508AB007008A7007108A800303036
:100488002B07A3003621532A2708F5002808F60071
:100498006430F900FA012E25F009701C662A270835
:1004A800F5002808F6006430F900FA0151257508AE
:1004B800AB007008A7007108A80030302B07A30014
:1004C8003621712A2708F5002808F6000A30F900B5
:1004D800FA012E25F009701C832A2708F500280840
:1004E800F6000A30F900FA0151257508AB007008CA
:1004F800A7007108A80030302B07A3003621303040
:100508002707A3003629AA1F942A2D30A4007C218E
:100518002909A7002A09A800A70A0319A80A982ADE
:100528002908A7002A08A800062A2100131120007C
:10053800200821009E002000A008031DA62A3E00D6
:100548003814922B2003031DAC2A3E00B814922BBA
:1005580002302002031DB32A3E003815922B0330C7
:100568002002031DBA2A3E00B815922B043020023F
:10057800031DC12A3E003816922B05302002031DA8
:10058800C82A3E00B816922B06302002031DCF2A37
:100598003E003817922B07302002031DD62A3E0052
:1005A800B817922B08302002031DDD2A3E004314A1
:1005B800922B09302002031DE42A3E00C314922B1B
:1005C8000A302002031DEB2A3E004315922B0B3004
:1005D8002002031DF22A3E00C315922B0C30200284
:1005E800031DF92A3E004316922B0D302002031DED
:1005F800002B3E00C316922B0E302002031D072B42
:100608003E004317922B0F302002031D0E2B3E0095
:10061800C317922B10302002031D152B3E004E14D9
:10062800922B11302002031D1C2B3E00CE14922B5E
:1006380012302002031D232B3E004E15922B13303F
:100648002002031D2A2B3E00CE15922B14302002C7
:10065800031D312B3E004E16922B15302002031D30
:10066800382B3E00CE16922B16302002031D3F2B4E
:100678003E004E17922B17302002031D462B3E00DA
:10068800CE17922B18302002031D4D2B3E00591413
:10069800922B19302002031D542B3E00D914922BA3
:1006A8001A302002031D5B2B3E005915922B1B307C
:1006B8002002031D622B3E00D915922B1C3020020C
:1006C800031D692B3E005916922B1D302002031D75
:1006D800702B3E00D916922B1E302002031D772B5B
:1006E8003E005917922B1F302002031D7E2B3E001F
:1006F800D917922B20302002031D852B3E0064144D
:10070800922B21302002031D8C2B3E00E414922BE7
:1007180022302002031D922B3E0064152100131283
:100728000130980013120F30980013111311200094
:10073800200821009E0093170230F5002000522067
:100748002100131400001318A72B93133E00B801BF
:10075800C301CE01D901E40121000D082000AD003C
:100768002100131120000800A00199222D08B900CA
:1007780003303902B3008330F5001A30F60033082D
:10078800F900FA0151257508B5007608B60004305D
:100798003502B3000030363BB4003308F5003408A6
:1007A800F6000530F900FA0151257508A20001305C
:1007B800A00099222D08B80003303802B300833016
:1007C800F5001A30F6003308F900FA0151257508CA
:1007D800B5007608B60004303502B3000030363B69
:1007E800B4003308F5003408F6000530F900FA01C2
:1007F80051257508A1000230A00099222D08B700E4
:100808000800080021080A3C03181F2C4220A601F2
:100818000130A50083212E08A9002F08AA008722ED
:100828000130A6000130A50083212108A700D121AD
:10083800B8230725062C1625F430F2000130F30002
:100848005A200F30210203183E2C4220A601013005
:10085800A50083212E08A9002F08AA0087220130AD
:10086800A6000130A50083212108A700D121B823C3
:10087800A025252CC120EE30F2000230F3005A20CA
:100888009A25FA30F200F3015A20C120EE30F20026
:100898000230F3005A20A0259630F200F3015A20C6
:1008A80021080F3C0318052DBA01BB01BA0A031928
:1008B800BB0AA0254220A6010130A50083212E08ED
:1008C800A9002F08AA0087220130A6000130A50040
:1008D80083212108A700D121B82321080F3C031840
:1008E8000C283230F200F3015A203A08F5003B0890
:1008F800F6000330F900FA012E2570185A2CBA01B7
:10090800BB01BA0A0319BB0AC1204220A601013063
:10091800A50083212E08A9002F08AA0087220130EC
:10092800A6000130A50083212108A700D121B82302
:1009380021080F3C03180C283230F200F3015A202A
:100948003A08F5003B08F6000530F900FA012E25B3
:100958007018852CBA01BB01BA0A0319BB0A9A257B
:100968004220A6010130A50083212E08A9002F08E6
:10097800AA0087220130A6000130A50083212108A2
:10098800A700D121B82321080F3C03180C283230C6
:10099800F200F3015A203A08F5003B08F60003304C
:1009A800F900FA012E257018B02CBA01BB01BA0A59
:1009B8000319BB0AC1204220A6010130A5008321EA
:1009C8002E08A9002F08AA0087220130A6000130AE
:1009D800A50083212108A700D121B82321080F3CB5
:1009E80003180C283230F200F3015A203A08F500B7
:1009F8003B08F6000530F900FA012E257018DB2CAB
:100A0800542C08000800C1200230F200F3015A20DB
:100A180017149711971017110530F200F3015A2097
:100A28000800080017109711971017110800080000
:100A3800F00175087902031D080076087A02031D83
:100A48000800F0090800F001031479087502031C76
:100A5800F0090800F00176087A02031C08007A08F9
:100A68007602031C3B2D7908750203180800F0096B
:100A78000800F90803190800F0010830F400031011
:100A8800F50DF00D7908F002751403184E2D751048
:100A98007908F007F40B432D08007508F70076086D
:100AA800F8007908FB007A08FC00F201F3017B08E2
:100AB800F5007C08F600F901FA011C25701C672D69
:100AC800F501F60108001030F4000310F70DF80DD9
:100AD800F20DF30D7B08F2027C08F33B7714031840
:100AE8007A2D77107B08F2077C08F33DF40B692D0B
:100AF8007708F5007808F6007208F0007308F1002E
:100B08000800F00175087918F0070310F90C0310B4
:100B1800F50DF908031D862D080078088A00770866
:100B2800F70A0319F80A820001342D3417149711B3
:100B38009710171508000800171097159714171124
:040B48000800080099
:020000040001F9
:0A000E008C3FFE3F9F3FFF1FFF3FA6
:00000001FF
